:020000040800F2
:10000000F8160020650100089D0100089F01000806
:1000100000000000000000000000000000000000E0
:10002000000000000000000000000000A301000824
:100030000000000000000000730100088D040008AB
:1000400077010008770100087701000877010008B0
:1000500077010008770100087701000877010008A0
:100060007701000877010008770100087701000890
:100070007701000877010008770100087701000880
:1000800077010008770100080000000077010008F0
:100090007701000877010008770100087701000860
:1000A0007701000877010008770100087701000850
:1000B0007701000800000000770100080000000040
:1000C00000F002F800F03EF80CA030C80838241800
:1000D0002D18A246671EAB4654465D46AC4201D180
:1000E00000F030F87E460F3E0FCCB6460126334274
:1000F00000D0FB1AA246AB4633431847781A0000DB
:10010000981A0000103A02D378C878C1FAD852077A
:1001100001D330C830C101D504680C6070470000BD
:100120000023002400250026103A01D378C1FBD813
:10013000520700D330C100D50B6070471FB51FBDFB
:1001400010B510BD01F05CFC1146FFF7F7FF00F0A1
:10015000E3F801F074FC03B4FFF7F2FF03BC01F015
:1001600079FC00000748804707480047FEE7FEE7A4
:10017000FEE7FEE7FEE7FEE704480549054A064BB1
:1001800070470000A5010008C1000008F810002019
:10019000F8160020F8120020F8120020704700BF67
:1001A000FEE770474548006801210843434908605D
:1001B000084640684249084040494860084600688F
:1001C000404908403D49086008460068012189040B
:1001D00088433A490860084640683F21090488433B
:1001E000364948600846C06A00090001C8620846EE
:1001F000006BFF2194318843304908630846006B47
:10020000802108432D4908630846406B40084000A0
:100210004863002088607047F8B500250024002658
:100220000027264840680C2108400546002D04D0D0
:10023000042D06D0082D2FD107E02348234908605C
:100240002EE02148214908602AE01C4840680F211F
:10025000890408400446194840680321C90308403E
:100260000646A00C841C1548C06A0007000F471CF6
:1002700001200004864207D13946134801F010FBE3
:1002800060431249086006E039460F4801F008FB58
:1002900060430E49086003E00B480C49086000BF4A
:1002A00000BF06484068F0210840000908490D5C7D
:1002B00006480068E84005490860F8BD00100240A3
:1002C0000CB8FF08FFFFF6FE00127A0000000020C5
:1002D000621A000800BF00BF00F087F8642001F038
:1002E000FFF900F083F8642001F0FAF9F4E700BFA9
:1002F00000BF00F070F8FF23F533002211461046CE
:1003000001F024FA00F06CF8FF23F53300221146C7
:10031000104601F01BFAECE710B500F02FF800F0E2
:10032000B1FA00F0C4F803230F4A00210F4800F08F
:100330008CFE044604230E4A00210E4800F085FE80
:10034000044600BF00F0CAFB002010BD01B500202C
:1003500006E0002100E0491C074A9142FBDB401CFB
:10036000009A9042F5D308BD40020020EF02000839
:1003700040040020D5020008881300001C49496988
:100380000122520411431A4A516105200921C9066C
:100390000968430001229A4011430922D2061160E4
:1003A000114649680022824011430922D206516059
:1003B00011468968430002229A4011430922D2065D
:1003C00091601146C968430001229A4011430922F5
:1003D000D206D160704720200921C9068862704783
:1003E00020200921C90688617047704770470000C6
:1003F0000010024070477047704770477047704761
:10040000704770B50446104601252D060560051F8E
:1004100028462C600126F643051F28462E60304EE4
:10042000051F28462E602F4E051F28462E602E4E93
:10043000051F28462E607610051F28462E60051FD2
:1004400028462960294E051F28462E60284E051F84
:1004500028462E60274E051F28462E60264E051F73
:1004600028462E60254E051F28462E60244E051F67
:1004700028462E60234E051F28462E60224E051F5B
:1004800028462E6070BD70477047704710B500F069
:1004900043F804461D480078401C1C49087020465B
:1004A00000F03EF800F052FB00F019FA10BD10B554
:1004B0007D21C9001648006801F0F2F90446601E6B
:1004C000144948610846006905210843114908613B
:1004D00008460069022108430E49086110BD00006A
:1004E000121212120303030302020202111111116C
:1004F000101010100909090908080808070707075C
:100500000606060605050505040404041900002076
:100510000000002000E000E0EFF3108072B67047AA
:1005200080F3108870474148804745480121017099
:10053000454801680A6882F30888FFBC80468946FE
:1005400092469B4604B00FBC84468E4683F30388D4
:1005500004B487B00FBC03B062B600BD72B684B0FD
:100560000FB408B0EFF303837246714660460FB4D0
:1005700084B04046494652465B46FFB4EFF30880DC
:10058000304909680860294880472B482B490A7878
:1005900002702C482C490A680260106880F30888B1
:1005A000FFBC8046894692469B4604B00FBC8446F9
:1005B0008E4683F3038804B487B00FBC03B062B6E1
:1005C00000BD00BF72B684B00FB408B0EFF3038370
:1005D0007246714660460FB484B040464946524662
:1005E0005B46FFB4EFF308801649096808600F48BE
:1005F0008047114811490A780270124812490A6866
:100600000260106880F30888FFBC804689469246E5
:100610009B4604B00FBC84468E4683F3038804B423
:1006200087B00FBC03B062B600BD00BF87040008EE
:10063000DF080008190000201B0000201C0000201B
:10064000260000202C000020340000207CB500256E
:1006500016E06946284600F03DFF0646002E0DD103
:10066000A800F6490C58002C08D0012C06D0E168EF
:100670008900A0684018E06301982064681CC5B236
:100680003F2DE6D97CBD002400BF02E0C82001F068
:1006900027F8EB4800780028F8D06421E948006882
:1006A00001F0FEF8E749086008460068002804D118
:1006B000E5490870FF2000F04FFF00BFFFF72CFF57
:1006C0000446E2480068E24908600020DF4908600B
:1006D0002046FFF725FFDB480168DD48006801F090
:1006E000DFF86421081AD8490870FFF788FEFFF781
:1006F000ADFF642000F0F4FFE0E700B587B0032011
:1007000000218022D34B0193029203910490D2489E
:100710003E23D24A0090D24800F0F2FC06AAD1A1B2
:100720003E2000F052FE07B000BD002400BF00BF15
:10073000FFF7F2FE0446C5480068401CC349086044
:100740002046FFF7EDFEFFF759FEF1E700B587B051
:10075000032000218022C74B019302920391049051
:10076000BD48401C3F23C44A0090C44800F0C8FC68
:1007700006AAC3A13F2000F028FE07B000BD04E098
:1007800000220270401C4A1E91B20029F8D1704725
:1007900070B5C821BE48FFF7F2FF00240DE0601CD1
:1007A00085B214206043BA494318142068434618A0
:1007B000002018705E60601C84B2092CEFD31420F6
:1007C0006043B34943180020187058600846B14987
:1007D000086070BD70B5D121C900AF48FFF7CFFFE9
:1007E000FF2101319548FFF7CAFF00240DE0601C8E
:1007F000C5B24C206043A84943184C2068434618B2
:100800005E61A6A05864601CC4B2152CEFD34C20C6
:100810006043A149431800205861A0A058640020FB
:100820009F4908609C489F49086070BD00219E4A0E
:100830001170002004E000219C4A1154411CC8B2F0
:100840000828F8D300219A4A11709A4A11709A4ADE
:1008500011609A4A116070470020994908609949CF
:100860000870994908709949087099490870994920
:1008700008607649086076490860724908607049E6
:100880000870704710B5FFF7B5FDFFF7E5FFFFF7FC
:10089000CDFFFFF79FFFFFF77BFFFFF757FFFFF746
:1008A0002CFFFFF7A8FD10BD89480078012808D16A
:1008B00084480078FF2804D282480078401C81498F
:1008C000087070478449784A1278885CC100774A7A
:1008D000125C814B9A5C8918764A1170704710B58A
:1008E00000247B480078012833D1FFF715FE044629
:1008F00074480078002804D072480078401E71497E
:10090000087070480078002820D16F4800780028CF
:100910001CD1FFF7D7FF6748007880004749085887
:1009200065490860634800786149097888420DD0BC
:1009300061480068006B401C5F49096808636548AE
:100940000068401C63490860FFF73CFE2046FFF743
:10095000E7FD10BD10B500245D480078012812D1D4
:10096000FFF7DAFD044657480078002808D15648BA
:100970000078FF2804D254480078401C524908707F
:100980002046FFF7CDFD10BD10B50024FFF7C4FDD4
:1009900004464C480078002820D14B4800780028B5
:1009A0001CD1FFF78FFF4348007880002349085887
:1009B000414908603F4800783D49097888420DD098
:1009C0003D480068006B401C3B490968086341488A
:1009D0000068401C3F490860FFF7C0FD2046FFF754
:1009E0009FFD10BD10B5002439480078012824D19E
:1009F000FFF792FD04463448007800281AD03248A8
:100A00000078401E304908700846007800280DD153
:100A10002C480078002805D12046FFF781FDFFF71C
:100A2000B3FF0AE02046FFF77BFD06E02046FFF714
:100A300077FD02E02046FFF773FD10BD0C09002092
:100A400018000020100000200C00002028000020CA
:100A5000140000200C050020FEFF00000807002005
:100A60008706000875432F4F532D49492053746161
:100A7000740000000C070020080900202B07000864
:100A800075432F4F532D49492049646C6500000080
:100A900044040020080000200C0A00203F00000051
:100AA00038000020300000201D0000201E00002023
:100AB0001B0000201C000020340000202C0000201F
:100AC00040000020190000201A000020270000200C
:100AD0002600002004000020721A000810B5F54816
:100AE0000078002812D1FFF7EDFEF3480078F349B3
:100AF0000870F14800788000F1490858F149086011
:100B000008460068F0490860FFF70DFD10BD10B5FC
:100B10000024022000F0E4FDFFF7FEFC0446002064
:100B2000EA4908602046FFF7FBFC642000F0D8FD8E
:100B3000FFF7F2FC0446E5480068E549086001203B
:100B4000E44908702046FFF7EBFC10BD70B50026A5
:100B5000FFF79BFCFFF7E0FC0646DF480068401CFF
:100B6000DD4908603046FFF7DBFCD24800780128F9
:100B70005CD1DA480078002804D0012804D002288B
:100B800009D103E001250BE0002509E00125012042
:100B9000D249087004E001250020D049087000BF48
:100BA00000BF002D00D170BDCD4804683AE0FFF7CA
:100BB000B3FC0646606A002830D0606A401E60625E
:100BC000606A00282AD12820005D372108400028CB
:100BD00009D02820005DC82108402821085501219E
:100BE0002920015502E00021292001552820005D1F
:100BF00008210840002811D12E20005DB94909784C
:100C00000843B84908702C20005DB749085C2D21C5
:100C1000095D08432C21095DB34A5054646930468C
:100C2000FFF77EFC2A20005D3F28C0D100BFBAE755
:100C3000FF2024307047704710B52C231A5C0B46F8
:100C40000B339B5C2D24245CA3430C460B34A35430
:100C500023469B5C002B04D18B7A2E24245CA34377
:100C60008B7210BDFFB582B005460F46A87A9F492A
:100C70000E5C28460B30805D085C0190F100019805
:100C80000818C0B20090009880008D490C580020D0
:100C9000606227622820005D049988432821085556
:100CA0002921059808552820005D082108400028C2
:100CB0000DD12E20005D8B490978084389490870C1
:100CC0008948805D2D21095D08438749885529465B
:100CD0002046FFF7B1FF009806B0F0BD10B57A4A84
:100CE0001268D061784A12682032137B02460B32B8
:100CF000D25C754B1B6820335B7B1A43724B1B68BD
:100D000020331C7B03460B331A55827A6E4B1B68CB
:100D100020339B7B1A4382726B4A12682032117B0C
:100D2000714A525C684B1B6820335B7B9A436E4B65
:100D30005A541A46525C002A08D1634A126820327B
:100D4000937B684A12789A43664B1A7010BD01462D
:100D500000228A72002005E000230A460B32135459
:100D6000421CD0B20828F7D3704705E00B78037017
:100D7000491C401C531E9AB2002AF7D17047014605
:100D8000002002E0491C421CD0B20A78002AF9D1A6
:100D90007047FFB581B005460F4600200090FFF771
:100DA000BBFB009052480468002C7DD0504960691C
:100DB00008600098FFF7B4FB27602A200555002142
:100DC0002820015529200155002060620B986060A1
:100DD0000A98E0600398A0600C98208204986082D2
:100DE0002F200155E9102C2001556907490F2B20B0
:100DF00001552C20015D01208840C1B22E200155F3
:100E00002B20015D01208840C1B22D20015500201A
:100E1000E06120622063A0636063E063206435A02A
:100E20006064002606E00021B20020464830815070
:100E3000701CC6B2002EF6D02046FFF725FB2046D8
:100E4000FFF7DAFAFFF768FB0090A8001C490C5086
:100E50002348006860610020A061214800680028E4
:100E600002D01F48006884611D4804602E20005D88
:100E70001C49097808431B4908702C20005D1A4959
:100E8000085C2D21095D08432C21095D164A505448
:100E900019480078401C184908700098FFF740FB7B
:100EA000002005B0F0BDFFE70098FFF739FB4220B6
:100EB000F7E70000260000201C0000201B00002097
:100EC0000C090020340000202C0000202800002005
:100ED0001000002018000020400000203C000020EE
:100EE000380000201D0000201E000020721A00089B
:100EF000300000203F00000027000020F3B587B03D
:100F000000200190FFF708FB019008988000F94944
:100F10000858002805D00198FFF702FB282009B0E7
:100F2000F0BD0798FF2804D1F34800682030807A8C
:100F3000079007988000EF490C58002C04D10198C5
:100F4000FFF7EEFA2920EAE7012C04D10198FFF718
:100F5000E7FA4320E3E70898C71008984007400FD6
:100F600006900120B840C0B205900121069881404A
:100F7000C8B20490002107988000DE4A11500898FA
:100F8000800011460C502C20065D2E20005D039041
:100F90002D20005D0290D948815D02980140002912
:100FA0001BD0D648805D02998843D44988550846AD
:100FB000805D002805D1D248017803988143D0484C
:100FC0000170CF48007805990843CD490870CB4897
:100FD000C05D04990843C949C855E569002D1BD077
:100FE00028460B30805D0299884329460B3188558D
:100FF0000846805D002803D1A97A03988143A9722D
:10100000A87A05990843A87228460B30C05D049958
:10101000084329460B31C8552A21089808552C2029
:1010200007552B21069808552E21059808552D2186
:10103000049808550198FFF773FAB2480078012820
:1010400001D1FFF7A1FC002069E7FFB585B0064696
:101050000F461C4600200390FFF75EFA0390AA4853
:101060000078002805D00398FFF75AFA3C2009B011
:10107000F0BDA0009F49085800282DD10120A100F3
:101080009C4A50500398FFF74BFA002339463046EC
:10109000079AFFF7B6F904900020009001900346EC
:1010A0000246029020460499FFF773FE0546002D84
:1010B00006D19448007801280CD1FFF765FC09E0BF
:1010C000FFF72AFA03900020A1008A4A50500398A3
:1010D000FFF726FA2846CAE70398FFF721FA2820E7
:1010E000C5E7D307DB0F002B09D002231340002BE9
:1010F00005D002E0491E002308C00029FAD170473C
:10110000FFB585B01C460F9F129D00200390FFF78E
:1011100003FA03907C480078002805D00398FFF775
:10112000FFF93C2009B0F0BDA00072490858002822
:1011300031D10120A1006F4A50500398FFF7F0F918
:101140002A4638461099FFF7CCFF2B4605A807C85A
:10115000FFF757F90490119910986A4623C23A464E
:1011600020460E9B0499FFF714FE0646002E06D17A
:101170006448007801280CD1FFF706FC09E0FFF76E
:10118000CBF903900020A1005A4A50500398FFF772
:10119000C7F93046C6E70398FFF7C2F92820C1E730
:1011A00070B50546002658480078002801D0402038
:1011B00070BD3F2D01D13E20FAE7FFF7ADF906469D
:1011C000FF2D03D14C4800682030857AA80049499A
:1011D0000C58002C04D13046FFF7A2F94320E7E772
:1011E000012C04D13046FFF79BF93D20E0E72C208D
:1011F000005D4249085C2D21095D88432C21095D71
:101200003E4A50542C20005D1146085C002806D14F
:101210002E20015D3A480078884339490870E0691A
:10122000002803D02046E169FFF706FD0020606238
:101230000021282001552920015534480078FF2835
:1012400004D232480078401C304908703046FFF71D
:1012500067F9FFF7F0FCFFF75FF906462B480078C7
:10126000002804D029480078401E284908702046EC
:10127000FFF7C3F826480078401E25490870002073
:10128000A9001C4A5050A069002805D161698861F5
:1012900020496069086005E0A16960694861616989
:1012A000A06988611C48006860611B4804601BA03D
:1012B00060643046FFF734F912480078012801D104
:1012C000FFF762FB002073E7F8B5044600273F2CC8
:1012D00001D13E20F8BDFF2C22D1FFF71DF90746B2
:1012E000054800682030C67B3846FFF719F93046BC
:1012F000F0E700000C0900202C0000201E00002058
:101300001D00002026000020190000201A000020E7
:101310002700002038000020300000203F0000009F
:10132000FFF7FAF80746A000E7490D58002D04D151
:101330003846FFF7F5F84320CCE7012D04D13846B5
:10134000FFF7EEF83D20C5E73F212F2041553846F5
:10135000FFF7E6F80020BDE7FEB506460F46144647
:1013600000200090D9480078002803D01120207078
:101370000020FEBDFFF7D0F80090FF2E03D1D44827
:1013800000682030867AB000CF490D58002D06D174
:101390000098FFF7C5F8432020700020E9E7012DF1
:1013A00006D10098FFF7BCF8432020700020E0E74A
:1013B000686C38603868FFF7E2FC01900098FFF72E
:1013C000AFF8002020700198D3E7F8B506460F4625
:1013D000144600200090BD480078002802D012205A
:1013E0002070F8BDFFF798F80090FF2E03D1B848A1
:1013F00000682030867AB000B3490D58002D05D121
:101400000098FFF78DF843202070EAE7012D05D101
:101410000098FFF785F843202070E2E76F6400989A
:10142000FFF77EF80020207000BFDAE770B50546B0
:101430000026FFF771F80646A800A3490C58002CB7
:1014400004D13046FFF76CF8462070BD012C04D162
:101450003046FFF765F84320F7E72820005D0821B4
:101460000840002831D02820005DF72108402821BD
:1014700008552820005D002822D1606A00281BD171
:101480002E20005D934909780843924908702C206A
:10149000005D9149085C2D21095D08432C21095DFF
:1014A0008D4A50543046FFF73BF88C4800780128AD
:1014B00009D1FFF769FA06E03046FFF731F802E09C
:1014C0003046FFF72DF80020BFE73046FFF728F839
:1014D0004420BAE7FEB507460D460020009028607C
:1014E0006860FFF719F80090FF2F03D17848006873
:1014F0002030877AB80074490C58002C04D1009829
:10150000FFF70EF84320FEBD012C04D10098FFF731
:1015100007F84320F7E7207CC007C00F002804D15C
:101520000098FEF7FDFF4520EDE70026E0680190FA
:10153000A06802900098FEF7F3FF00E0761C029886
:1015400002C802900029F9D0B00028600198801BE1
:10155000800068600020D6E7F8B5054600200090BE
:10156000FEF7DAFF0090FF2D05D1594800682030C2
:10157000857A012608E0564800682030807AA84223
:1015800001D1012600E00026A8004F490C58002C8C
:1015900004D10098FEF7C4FF4820F8BD012C04D107
:1015A0000098FEF7BDFF4320F7E72C20075D4A486F
:1015B000C05D2D21095D88434749C8550846C05D77
:1015C000002806D12E20015D424800788843414919
:1015D00008702820005D082108432821085500983C
:1015E000FEF79EFF012E01D1FFF7CEF90020D4E7D0
:1015F000F8B505460E460027FEF78EFF0746FF2D7D
:1016000003D1334800682030857AA8002E490C5851
:10161000002C04D13846FEF783FF2920F8BD012CA9
:1016200004D13846FEF77CFF4320F7E74C222146E1
:101630003046FFF79AFB3846FEF772FF0020EDE7D1
:10164000FEB504460E46174600200190FEF764FFE3
:101650000190FF2C02D11E48056802E0A0001A4943
:101660000D58B10028464830405800900198FEF7C8
:1016700057FF002038700098FEBDFFB581B00446CA
:101680000E46174600200090FEF746FF0090FF2C04
:1016900002D10F48056802E0A0000B490D58B100C7
:1016A0002846483047500098FEF73AFF002104983A
:1016B000017005B0F0BD10B505480068FEF7A0FE4A
:1016C000FF20FFF76DFD10BD0C0900201900002060
:1016D0002C0000201D0000201E00002026000020FD
:1016E00070B50546002667480078002800D070BD18
:1016F00065480078002800D0F9E7002D24D0FEF7D7
:101700000BFF0646614800682030047B6048005D9E
:101710005E4909682031497B88435D490855084680
:10172000005D002808D1594800682030817B594865
:10173000007888435749087054480068456230462D
:10174000FEF7EEFEFFF720F900BFD0E7F8B505463B
:101750000E4617461C464B480078002801D05520FD
:10176000F8BD49480078002801D03220F8E77D21F3
:10177000C900614308467D21C90000F091F8E121CC
:10178000090169433C2272438918C9197D22D2009C
:101790005143401800900098FFF7A2FF0020DFE7B8
:1017A00070B5054600263F2D01D32A2070BDFEF7F7
:1017B000B3FE0646A80038490C58002C04D1304628
:1017C000FEF7AEFE4320F1E7012C04D13046FEF7D0
:1017D000A7FE4320EAE7606A002804D13046FEF7FE
:1017E0009FFE5020E2E7002060622820005D372144
:1017F0000840002808D02820005D8843282108558B
:1018000001212920015502E000212920015528202D
:10181000005D08210840002817D12E20005D1D49D9
:10182000097808431B4908702C20005D1849085CA2
:101830002D21095D08432C21095D154A505430467D
:10184000FEF76EFEFFF7A0F802E03046FEF768FEF6
:101850000020ABE770B50025FEF75EFE05460F4899
:1018600004682846FEF75CFE204670BD70B504464D
:101870000025FEF751FE0546084804602846FEF79D
:101880004FFE70BD190000201A0000202C0000201F
:101890001E0000201D0000200C0900204000002038
:1018A000002203098B422CD3030A8B4211D300235D
:1018B0009C464EE003460B433CD4002243088B4237
:1018C00031D303098B421CD3030A8B4201D39446C4
:1018D0003FE0C3098B4201D3CB01C01A52418309B7
:1018E0008B4201D38B01C01A524143098B4201D371
:1018F0004B01C01A524103098B4201D30B01C01A9C
:101900005241C3088B4201D3CB00C01A5241830815
:101910008B4201D38B00C01A524143088B4201D342
:101920004B00C01A5241411A00D2014652411046A2
:1019300070475DE0CA0F00D04942031000D3404217
:10194000534000229C4603098B422DD3030A8B424D
:1019500012D3FC22890112BA030A8B420CD38901EB
:1019600092118B4208D3890192118B4204D38901D1
:101970003AD0921100E08909C3098B4201D3CB010F
:10198000C01A524183098B4201D38B01C01A5241C4
:1019900043098B4201D34B01C01A524103098B42C8
:1019A00001D30B01C01A5241C3088B4201D3CB00B3
:1019B000C01A524183088B4201D38B00C01A524196
:1019C000D9D243088B4201D34B00C01A5241411A6D
:1019D00000D20146634652415B10104601D340429B
:1019E000002B00D54942704763465B1000D340424C
:1019F00001B50020C046C04602BD70477047704721
:101A0000754600F023F8AE46050069465346C00807
:101A1000C000854618B020B5FEF7AEFB60BC0027BD
:101A20004908B6460026C0C5C0C5C0C5C0C5C0C5AA
:101A3000C0C5C0C5C0C5403D49008D46704704467D
:101A4000C046C0462046FEF786FB000000487047AF
:101A50009410002001491820ABBEFEE726000200CA
:101A600070470000000000000000010203040607A8
:101A7000080900000100020001000300010002004B
:101A80000100040001000200010003000100020047
:101A90000100050001000200010003000100020036
:101AA0000100040001000200010003000100020027
:101AB0000100060001000200010003000100020015
:101AC0000100040001000200010003000100020007
:101AD00001000500010002000100030001000200F6
:101AE00001000400010002000100030001000200E7
:101AF00001000700010002000100030001000200D4
:101B000001000400010002000100030001000200C6
:101B100001000500010002000100030001000200B5
:101B200001000400010002000100030001000200A6
:101B30000100060001000200010003000100020094
:101B40000100040001000200010003000100020086
:101B50000100050001000200010003000100020075
:101B60000100040001000200010003000100020066
:101B700001000000941B0008000000204400000049
:101B800004010008D81B000844000020B41600001F
:101B90002001000800127A00000000000000000090
:101BA0000000000000000000000000000000000035
:101BB0000000000000000000000000000000000025
:101BC0000000000000000000000000000000000015
:081BD00000000000000000000D
:04000005080000C12E
:00000001FF
